:02000000412994
:0E0006008312031321088A00200882000800DC
:10001400831603139818102800000A2883122F0847
:040024009900080037
:0E0028001D3083120313FD00FD0B1828080085
:1000360083120313F801F9011030FC00710DF80D5D
:10004600F90D7408F8027508031C750FF9020318F8
:1000560033287408F80775080318750FF907031095
:0A006600F00DF10DFC0B212808003D
:1000700083120313FB01FA01F9018030F800F10C3F
:10008000F00C031C4C287408F90775080318750F49
:10009000FA070318FB0A0310F01F54287408FA0724
:1000A00075080318750FFB07FB0CFA0CF90CF80C1C
:1000B000031C3F287B08F3007A08F2007908F1005E
:0600C0007808F0000800C2
:1000C60083120313AD0105302D02031871282D0884
:1000D6002C07840020308000AD0A66282D082C07E6
:1000E60084008001AD032D082C07AE000A30F40011
:1000F600F5012A08F0002B08F1001B207808F00013
:100106007908F1003030F0072E088400700880006E
:100116000A30F400F5012A08F0002B08F1001B2034
:100126007008AA007108AB0000307106031D9D28F7
:1001360000307006031DA028A228AD03762808000B
:0C01460083120313950117129712080092
:10015200831603131208013EF000F1010318F10A9D
:1001620083122A08F400F50138200630F2007008E4
:10017200F4007108F50072080319C428F50CF40C98
:10018200F513FF3EBD280430F1007408F000710839
:100192000319CF28F00D7010FF3EC92830307005CA
:1001A200F3007408F0007508F100F10CF00CF11383
:1001B200F10CF00CF113700895000F3097057308DD
:0401C2009704080096
:1001C600831203139F01C0309F0483161F179F17C6
:1001D60083122A08F000F00D7010F00D7010F00D6B
:1001E600701070089F041F1414201F151F1DFD2872
:1001F6000000F9281F101E08F100F00183161E08E2
:08020600F0040030F1040800CF
:10020E0003208A110A128000840AA00A0319A10A87
:08021E00F003031D072908008D
:1002260083120313AC012A0884000008AB002B08D4
:10023600003A031928292B08AF000A20AC0A2C081B
:0C0246002A0784000008AB001A290800F9
:10025200831603130711831212150C30970408003A
:10026200831603139816903083129800831687170B
:10027200071383128C1E40291A08F0003A2908003D
:100282008312031312149210633083169200A32078
:100292004630AA00A920673083169900181531212B
:1002A20011308316870083128701FF308316850081
:1002B20080309F002921AA01E32070088312A20046
:1002C2007108A3007008AA007108AB002430AC00CA
:1002D20063202430AA0013210D30AF000A200A3017
:1002E200AF000A202208F0002308F100F10CF00C04
:1002F200F113711BF117F10CF00CF113711BF117D3
:100302007008AA00A9200330FB000830FC007730F7
:10031200FD00FD0B8A29FC0B8A29FB0B8A295C292B
:0203220091291F
:02400E004A2F37
:00000001FF
